{
  "_format": "hh-sol-artifact-1",
  "contractName": "CloneNFT",
  "sourceName": "contracts/CloneNFT.sol",
  "abi": [
    {
      "inputs": [],
      "stateMutability": "nonpayable",
      "type": "constructor"
    },
    {
      "anonymous": false,
      "inputs": [
        {
          "indexed": true,
          "internalType": "address",
          "name": "owner",
          "type": "address"
        },
        {
          "indexed": true,
          "internalType": "address",
          "name": "approved",
          "type": "address"
        },
        {
          "indexed": true,
          "internalType": "uint256",
          "name": "tokenId",
          "type": "uint256"
        }
      ],
      "name": "Approval",
      "type": "event"
    },
    {
      "anonymous": false,
      "inputs": [
        {
          "indexed": true,
          "internalType": "address",
          "name": "owner",
          "type": "address"
        },
        {
          "indexed": true,
          "internalType": "address",
          "name": "operator",
          "type": "address"
        },
        {
          "indexed": false,
          "internalType": "bool",
          "name": "approved",
          "type": "bool"
        }
      ],
      "name": "ApprovalForAll",
      "type": "event"
    },
    {
      "anonymous": false,
      "inputs": [
        {
          "indexed": false,
          "internalType": "uint256",
          "name": "_fromTokenId",
          "type": "uint256"
        },
        {
          "indexed": false,
          "internalType": "uint256",
          "name": "_toTokenId",
          "type": "uint256"
        }
      ],
      "name": "BatchMetadataUpdate",
      "type": "event"
    },
    {
      "anonymous": false,
      "inputs": [
        {
          "indexed": true,
          "internalType": "address",
          "name": "owner",
          "type": "address"
        },
        {
          "indexed": false,
          "internalType": "uint256",
          "name": "tokenId",
          "type": "uint256"
        },
        {
          "indexed": false,
          "internalType": "string",
          "name": "metadataURI",
          "type": "string"
        }
      ],
      "name": "CloneMinted",
      "type": "event"
    },
    {
      "anonymous": false,
      "inputs": [
        {
          "indexed": false,
          "internalType": "uint256",
          "name": "_tokenId",
          "type": "uint256"
        }
      ],
      "name": "MetadataUpdate",
      "type": "event"
    },
    {
      "anonymous": false,
      "inputs": [
        {
          "indexed": true,
          "internalType": "address",
          "name": "previousOwner",
          "type": "address"
        },
        {
          "indexed": true,
          "internalType": "address",
          "name": "newOwner",
          "type": "address"
        }
      ],
      "name": "OwnershipTransferred",
      "type": "event"
    },
    {
      "anonymous": false,
      "inputs": [
        {
          "indexed": true,
          "internalType": "address",
          "name": "from",
          "type": "address"
        },
        {
          "indexed": true,
          "internalType": "address",
          "name": "to",
          "type": "address"
        },
        {
          "indexed": true,
          "internalType": "uint256",
          "name": "tokenId",
          "type": "uint256"
        }
      ],
      "name": "Transfer",
      "type": "event"
    },
    {
      "inputs": [
        {
          "internalType": "address",
          "name": "to",
          "type": "address"
        },
        {
          "internalType": "uint256",
          "name": "tokenId",
          "type": "uint256"
        }
      ],
      "name": "approve",
      "outputs": [],
      "stateMutability": "nonpayable",
      "type": "function"
    },
    {
      "inputs": [
        {
          "internalType": "address",
          "name": "owner",
          "type": "address"
        }
      ],
      "name": "balanceOf",
      "outputs": [
        {
          "internalType": "uint256",
          "name": "",
          "type": "uint256"
        }
      ],
      "stateMutability": "view",
      "type": "function"
    },
    {
      "inputs": [
        {
          "internalType": "uint256",
          "name": "",
          "type": "uint256"
        }
      ],
      "name": "cloneMetadata",
      "outputs": [
        {
          "internalType": "string",
          "name": "",
          "type": "string"
        }
      ],
      "stateMutability": "view",
      "type": "function"
    },
    {
      "inputs": [
        {
          "internalType": "uint256",
          "name": "tokenId",
          "type": "uint256"
        }
      ],
      "name": "getApproved",
      "outputs": [
        {
          "internalType": "address",
          "name": "",
          "type": "address"
        }
      ],
      "stateMutability": "view",
      "type": "function"
    },
    {
      "inputs": [
        {
          "internalType": "address",
          "name": "owner",
          "type": "address"
        },
        {
          "internalType": "address",
          "name": "operator",
          "type": "address"
        }
      ],
      "name": "isApprovedForAll",
      "outputs": [
        {
          "internalType": "bool",
          "name": "",
          "type": "bool"
        }
      ],
      "stateMutability": "view",
      "type": "function"
    },
    {
      "inputs": [
        {
          "internalType": "address",
          "name": "to",
          "type": "address"
        },
        {
          "internalType": "string",
          "name": "metadataURI",
          "type": "string"
        }
      ],
      "name": "mintClone",
      "outputs": [],
      "stateMutability": "nonpayable",
      "type": "function"
    },
    {
      "inputs": [],
      "name": "name",
      "outputs": [
        {
          "internalType": "string",
          "name": "",
          "type": "string"
        }
      ],
      "stateMutability": "view",
      "type": "function"
    },
    {
      "inputs": [],
      "name": "owner",
      "outputs": [
        {
          "internalType": "address",
          "name": "",
          "type": "address"
        }
      ],
      "stateMutability": "view",
      "type": "function"
    },
    {
      "inputs": [
        {
          "internalType": "uint256",
          "name": "tokenId",
          "type": "uint256"
        }
      ],
      "name": "ownerOf",
      "outputs": [
        {
          "internalType": "address",
          "name": "",
          "type": "address"
        }
      ],
      "stateMutability": "view",
      "type": "function"
    },
    {
      "inputs": [],
      "name": "renounceOwnership",
      "outputs": [],
      "stateMutability": "nonpayable",
      "type": "function"
    },
    {
      "inputs": [
        {
          "internalType": "address",
          "name": "from",
          "type": "address"
        },
        {
          "internalType": "address",
          "name": "to",
          "type": "address"
        },
        {
          "internalType": "uint256",
          "name": "tokenId",
          "type": "uint256"
        }
      ],
      "name": "safeTransferFrom",
      "outputs": [],
      "stateMutability": "nonpayable",
      "type": "function"
    },
    {
      "inputs": [
        {
          "internalType": "address",
          "name": "from",
          "type": "address"
        },
        {
          "internalType": "address",
          "name": "to",
          "type": "address"
        },
        {
          "internalType": "uint256",
          "name": "tokenId",
          "type": "uint256"
        },
        {
          "internalType": "bytes",
          "name": "data",
          "type": "bytes"
        }
      ],
      "name": "safeTransferFrom",
      "outputs": [],
      "stateMutability": "nonpayable",
      "type": "function"
    },
    {
      "inputs": [
        {
          "internalType": "address",
          "name": "operator",
          "type": "address"
        },
        {
          "internalType": "bool",
          "name": "approved",
          "type": "bool"
        }
      ],
      "name": "setApprovalForAll",
      "outputs": [],
      "stateMutability": "nonpayable",
      "type": "function"
    },
    {
      "inputs": [
        {
          "internalType": "bytes4",
          "name": "interfaceId",
          "type": "bytes4"
        }
      ],
      "name": "supportsInterface",
      "outputs": [
        {
          "internalType": "bool",
          "name": "",
          "type": "bool"
        }
      ],
      "stateMutability": "view",
      "type": "function"
    },
    {
      "inputs": [],
      "name": "symbol",
      "outputs": [
        {
          "internalType": "string",
          "name": "",
          "type": "string"
        }
      ],
      "stateMutability": "view",
      "type": "function"
    },
    {
      "inputs": [
        {
          "internalType": "uint256",
          "name": "index",
          "type": "uint256"
        }
      ],
      "name": "tokenByIndex",
      "outputs": [
        {
          "internalType": "uint256",
          "name": "",
          "type": "uint256"
        }
      ],
      "stateMutability": "view",
      "type": "function"
    },
    {
      "inputs": [],
      "name": "tokenIdCounter",
      "outputs": [
        {
          "internalType": "uint256",
          "name": "",
          "type": "uint256"
        }
      ],
      "stateMutability": "view",
      "type": "function"
    },
    {
      "inputs": [
        {
          "internalType": "address",
          "name": "owner",
          "type": "address"
        },
        {
          "internalType": "uint256",
          "name": "index",
          "type": "uint256"
        }
      ],
      "name": "tokenOfOwnerByIndex",
      "outputs": [
        {
          "internalType": "uint256",
          "name": "",
          "type": "uint256"
        }
      ],
      "stateMutability": "view",
      "type": "function"
    },
    {
      "inputs": [
        {
          "internalType": "uint256",
          "name": "tokenId",
          "type": "uint256"
        }
      ],
      "name": "tokenURI",
      "outputs": [
        {
          "internalType": "string",
          "name": "",
          "type": "string"
        }
      ],
      "stateMutability": "view",
      "type": "function"
    },
    {
      "inputs": [],
      "name": "totalSupply",
      "outputs": [
        {
          "internalType": "uint256",
          "name": "",
          "type": "uint256"
        }
      ],
      "stateMutability": "view",
      "type": "function"
    },
    {
      "inputs": [
        {
          "internalType": "address",
          "name": "from",
          "type": "address"
        },
        {
          "internalType": "address",
          "name": "to",
          "type": "address"
        },
        {
          "internalType": "uint256",
          "name": "tokenId",
          "type": "uint256"
        }
      ],
      "name": "transferFrom",
      "outputs": [],
      "stateMutability": "nonpayable",
      "type": "function"
    },
    {
      "inputs": [
        {
          "internalType": "address",
          "name": "newOwner",
          "type": "address"
        }
      ],
      "name": "transferOwnership",
      "outputs": [],
      "stateMutability": "nonpayable",
      "type": "function"
    },
    {
      "inputs": [
        {
          "internalType": "uint256",
          "name": "tokenId",
          "type": "uint256"
        },
        {
          "internalType": "string",
          "name": "newMetadataURI",
          "type": "string"
        }
      ],
      "name": "updateMetadata",
      "outputs": [],
      "stateMutability": "nonpayable",
      "type": "function"
    }
  ],
  "bytecode": "0x60806040523480156200001157600080fd5b506040518060400160405280600a81526020017f4149436c6f6e654e4654000000000000000000000000000000000000000000008152506040518060400160405280600781526020017f4149436c6f6e650000000000000000000000000000000000000000000000000081525081600090816200008f91906200041a565b508060019081620000a191906200041a565b505050620000c4620000b8620000d260201b60201c565b620000da60201b60201c565b6001600c8190555062000501565b600033905090565b6000600b60009054906101000a900473ffffffffffffffffffffffffffffffffffffffff16905081600b60006101000a81548173ffffffffffffffffffffffffffffffffffffffff021916908373ffffffffffffffffffffffffffffffffffffffff1602179055508173ffffffffffffffffffffffffffffffffffffffff168173ffffffffffffffffffffffffffffffffffffffff167f8be0079c531659141344cd1fd0a4f28419497f9722a3daafe3b4186f6b6457e060405160405180910390a35050565b600081519050919050565b7f4e487b7100000000000000000000000000000000000000000000000000000000600052604160045260246000fd5b7f4e487b7100000000000000000000000000000000000000000000000000000000600052602260045260246000fd5b600060028204905060018216806200022257607f821691505b602082108103620002385762000237620001da565b5b50919050565b60008190508160005260206000209050919050565b60006020601f8301049050919050565b600082821b905092915050565b600060088302620002a27fffffffffffffffffffffffffffffffffffffffffffffffffffffffffffffffff8262000263565b620002ae868362000263565b95508019841693508086168417925050509392505050565b6000819050919050565b6000819050919050565b6000620002fb620002f5620002ef84620002c6565b620002d0565b620002c6565b9050919050565b6000819050919050565b6200031783620002da565b6200032f620003268262000302565b84845462000270565b825550505050565b600090565b6200034662000337565b620003538184846200030c565b505050565b5b818110156200037b576200036f6000826200033c565b60018101905062000359565b5050565b601f821115620003ca5762000394816200023e565b6200039f8462000253565b81016020851015620003af578190505b620003c7620003be8562000253565b83018262000358565b50505b505050565b600082821c905092915050565b6000620003ef60001984600802620003cf565b1980831691505092915050565b60006200040a8383620003dc565b9150826002028217905092915050565b6200042582620001a0565b67ffffffffffffffff811115620004415762000440620001ab565b5b6200044d825462000209565b6200045a8282856200037f565b600060209050601f8311600181146200049257600084156200047d578287015190505b620004898582620003fc565b865550620004f9565b601f198416620004a2866200023e565b60005b82811015620004cc57848901518255600182019150602085019450602081019050620004a5565b86831015620004ec5784890151620004e8601f891682620003dc565b8355505b6001600288020188555050505b505050505050565b613b5d80620005116000396000f3fe608060405234801561001057600080fd5b506004361061014d5760003560e01c806353c8388e116100c357806398bdf6f51161007c57806398bdf6f5146103b0578063a22cb465146103ce578063b88d4fde146103ea578063c87b56dd14610406578063e985e9c514610436578063f2fde38b146104665761014d565b806353c8388e146102ee5780636352211e1461030a57806370a082311461033a578063715018a61461036a5780638da5cb5b1461037457806395d89b41146103925761014d565b8063219a88e911610115578063219a88e91461020a57806323b872dd146102265780632f745c591461024257806332cd3a5c1461027257806342842e0e146102a25780634f6ccce7146102be5761014d565b806301ffc9a71461015257806306fdde0314610182578063081812fc146101a0578063095ea7b3146101d057806318160ddd146101ec575b600080fd5b61016c60048036038101906101679190612597565b610482565b60405161017991906125df565b60405180910390f35b61018a610494565b604051610197919061268a565b60405180910390f35b6101ba60048036038101906101b591906126e2565b610526565b6040516101c79190612750565b60405180910390f35b6101ea60048036038101906101e59190612797565b61056c565b005b6101f4610683565b60405161020191906127e6565b60405180910390f35b610224600480360381019061021f9190612936565b610690565b005b610240600480360381019061023b9190612992565b610739565b005b61025c60048036038101906102579190612797565b610799565b60405161026991906127e6565b60405180910390f35b61028c600480360381019061028791906126e2565b61083e565b604051610299919061268a565b60405180910390f35b6102bc60048036038101906102b79190612992565b6108de565b005b6102d860048036038101906102d391906126e2565b6108fe565b6040516102e591906127e6565b60405180910390f35b610308600480360381019061030391906129e5565b61096f565b005b610324600480360381019061031f91906126e2565b610a14565b6040516103319190612750565b60405180910390f35b610354600480360381019061034f9190612a41565b610a9a565b60405161036191906127e6565b60405180910390f35b610372610b51565b005b61037c610b65565b6040516103899190612750565b60405180910390f35b61039a610b8f565b6040516103a7919061268a565b60405180910390f35b6103b8610c21565b6040516103c591906127e6565b60405180910390f35b6103e860048036038101906103e39190612a9a565b610c27565b005b61040460048036038101906103ff9190612b7b565b610c3d565b005b610420600480360381019061041b91906126e2565b610c9f565b60405161042d919061268a565b60405180910390f35b610450600480360381019061044b9190612bfe565b610cb1565b60405161045d91906125df565b60405180910390f35b610480600480360381019061047b9190612a41565b610d45565b005b600061048d82610dc8565b9050919050565b6060600080546104a390612c6d565b80601f01602080910402602001604051908101604052809291908181526020018280546104cf90612c6d565b801561051c5780601f106104f15761010080835404028352916020019161051c565b820191906000526020600020905b8154815290600101906020018083116104ff57829003601f168201915b5050505050905090565b600061053182610e42565b6004600083815260200190815260200160002060009054906101000a900473ffffffffffffffffffffffffffffffffffffffff169050919050565b600061057782610a14565b90508073ffffffffffffffffffffffffffffffffffffffff168373ffffffffffffffffffffffffffffffffffffffff16036105e7576040517f08c379a00000000000000000000000000000000000000000000000000000000081526004016105de90612d10565b60405180910390fd5b8073ffffffffffffffffffffffffffffffffffffffff16610606610e8d565b73ffffffffffffffffffffffffffffffffffffffff16148061063557506106348161062f610e8d565b610cb1565b5b610674576040517f08c379a000000000000000000000000000000000000000000000000000000000815260040161066b90612da2565b60405180910390fd5b61067e8383610e95565b505050565b6000600980549050905090565b6000600c5490506106a18382610f4e565b6106ab8183610f6c565b81600d600083815260200190815260200160002090816106cb9190612f6e565b50600c60008154809291906106df9061306f565b91905055508273ffffffffffffffffffffffffffffffffffffffff167ffe9facaeda7803844b4b343f9e20ad535f18b4e1d9c8c8c4d09414c5abd72248828460405161072c9291906130b7565b60405180910390a2505050565b61074a610744610e8d565b82611010565b610789576040517f08c379a000000000000000000000000000000000000000000000000000000000815260040161078090613159565b60405180910390fd5b6107948383836110a5565b505050565b60006107a483610a9a565b82106107e5576040517f08c379a00000000000000000000000000000000000000000000000000000000081526004016107dc906131eb565b60405180910390fd5b600760008473ffffffffffffffffffffffffffffffffffffffff1673ffffffffffffffffffffffffffffffffffffffff168152602001908152602001600020600083815260200190815260200160002054905092915050565b600d602052806000526040600020600091509050805461085d90612c6d565b80601f016020809104026020016040519081016040528092919081815260200182805461088990612c6d565b80156108d65780601f106108ab576101008083540402835291602001916108d6565b820191906000526020600020905b8154815290600101906020018083116108b957829003601f168201915b505050505081565b6108f983838360405180602001604052806000815250610c3d565b505050565b6000610908610683565b8210610949576040517f08c379a00000000000000000000000000000000000000000000000000000000081526004016109409061327d565b60405180910390fd5b6009828154811061095d5761095c61329d565b5b90600052602060002001549050919050565b3373ffffffffffffffffffffffffffffffffffffffff1661098f83610a14565b73ffffffffffffffffffffffffffffffffffffffff16146109e5576040517f08c379a00000000000000000000000000000000000000000000000000000000081526004016109dc90613318565b60405180910390fd5b6109ef8282610f6c565b80600d60008481526020019081526020016000209081610a0f9190612f6e565b505050565b600080610a208361139e565b9050600073ffffffffffffffffffffffffffffffffffffffff168173ffffffffffffffffffffffffffffffffffffffff1603610a91576040517f08c379a0000000000000000000000000000000000000000000000000000000008152600401610a8890613384565b60405180910390fd5b80915050919050565b60008073ffffffffffffffffffffffffffffffffffffffff168273ffffffffffffffffffffffffffffffffffffffff1603610b0a576040517f08c379a0000000000000000000000000000000000000000000000000000000008152600401610b0190613416565b60405180910390fd5b600360008373ffffffffffffffffffffffffffffffffffffffff1673ffffffffffffffffffffffffffffffffffffffff168152602001908152602001600020549050919050565b610b596113db565b610b636000611459565b565b6000600b60009054906101000a900473ffffffffffffffffffffffffffffffffffffffff16905090565b606060018054610b9e90612c6d565b80601f0160208091040260200160405190810160405280929190818152602001828054610bca90612c6d565b8015610c175780601f10610bec57610100808354040283529160200191610c17565b820191906000526020600020905b815481529060010190602001808311610bfa57829003601f168201915b5050505050905090565b600c5481565b610c39610c32610e8d565b838361151f565b5050565b610c4e610c48610e8d565b83611010565b610c8d576040517f08c379a0000000000000000000000000000000000000000000000000000000008152600401610c8490613159565b60405180910390fd5b610c998484848461168b565b50505050565b6060610caa826116e7565b9050919050565b6000600560008473ffffffffffffffffffffffffffffffffffffffff1673ffffffffffffffffffffffffffffffffffffffff16815260200190815260200160002060008373ffffffffffffffffffffffffffffffffffffffff1673ffffffffffffffffffffffffffffffffffffffff16815260200190815260200160002060009054906101000a900460ff16905092915050565b610d4d6113db565b600073ffffffffffffffffffffffffffffffffffffffff168173ffffffffffffffffffffffffffffffffffffffff1603610dbc576040517f08c379a0000000000000000000000000000000000000000000000000000000008152600401610db3906134a8565b60405180910390fd5b610dc581611459565b50565b60007f780e9d63000000000000000000000000000000000000000000000000000000007bffffffffffffffffffffffffffffffffffffffffffffffffffffffff1916827bffffffffffffffffffffffffffffffffffffffffffffffffffffffff19161480610e3b5750610e3a826117f9565b5b9050919050565b610e4b8161185a565b610e8a576040517f08c379a0000000000000000000000000000000000000000000000000000000008152600401610e8190613384565b60405180910390fd5b50565b600033905090565b816004600083815260200190815260200160002060006101000a81548173ffffffffffffffffffffffffffffffffffffffff021916908373ffffffffffffffffffffffffffffffffffffffff160217905550808273ffffffffffffffffffffffffffffffffffffffff16610f0883610a14565b73ffffffffffffffffffffffffffffffffffffffff167f8c5be1e5ebec7d5bd14f71427d1e84f3dd0314c0f7b2291e5b200ac8c7c3b92560405160405180910390a45050565b610f6882826040518060200160405280600081525061189b565b5050565b610f758261185a565b610fb4576040517f08c379a0000000000000000000000000000000000000000000000000000000008152600401610fab9061353a565b60405180910390fd5b80600660008481526020019081526020016000209081610fd49190612f6e565b507ff8e1a15aba9398e019f0b49df1a4fde98ee17ae345cb5f6b5e2c27f5033e8ce78260405161100491906127e6565b60405180910390a15050565b60008061101c83610a14565b90508073ffffffffffffffffffffffffffffffffffffffff168473ffffffffffffffffffffffffffffffffffffffff16148061105e575061105d8185610cb1565b5b8061109c57508373ffffffffffffffffffffffffffffffffffffffff1661108484610526565b73ffffffffffffffffffffffffffffffffffffffff16145b91505092915050565b8273ffffffffffffffffffffffffffffffffffffffff166110c582610a14565b73ffffffffffffffffffffffffffffffffffffffff161461111b576040517f08c379a0000000000000000000000000000000000000000000000000000000008152600401611112906135cc565b60405180910390fd5b600073ffffffffffffffffffffffffffffffffffffffff168273ffffffffffffffffffffffffffffffffffffffff160361118a576040517f08c379a00000000000000000000000000000000000000000000000000000000081526004016111819061365e565b60405180910390fd5b61119783838360016118f6565b8273ffffffffffffffffffffffffffffffffffffffff166111b782610a14565b73ffffffffffffffffffffffffffffffffffffffff161461120d576040517f08c379a0000000000000000000000000000000000000000000000000000000008152600401611204906135cc565b60405180910390fd5b6004600082815260200190815260200160002060006101000a81549073ffffffffffffffffffffffffffffffffffffffff02191690556001600360008573ffffffffffffffffffffffffffffffffffffffff1673ffffffffffffffffffffffffffffffffffffffff168152602001908152602001600020600082825403925050819055506001600360008473ffffffffffffffffffffffffffffffffffffffff1673ffffffffffffffffffffffffffffffffffffffff16815260200190815260200160002060008282540192505081905550816002600083815260200190815260200160002060006101000a81548173ffffffffffffffffffffffffffffffffffffffff021916908373ffffffffffffffffffffffffffffffffffffffff160217905550808273ffffffffffffffffffffffffffffffffffffffff168473ffffffffffffffffffffffffffffffffffffffff167fddf252ad1be2c89b69c2b068fc378daa952ba7f163c4a11628f55a4df523b3ef60405160405180910390a46113998383836001611908565b505050565b60006002600083815260200190815260200160002060009054906101000a900473ffffffffffffffffffffffffffffffffffffffff169050919050565b6113e3610e8d565b73ffffffffffffffffffffffffffffffffffffffff16611401610b65565b73ffffffffffffffffffffffffffffffffffffffff1614611457576040517f08c379a000000000000000000000000000000000000000000000000000000000815260040161144e906136ca565b60405180910390fd5b565b6000600b60009054906101000a900473ffffffffffffffffffffffffffffffffffffffff16905081600b60006101000a81548173ffffffffffffffffffffffffffffffffffffffff021916908373ffffffffffffffffffffffffffffffffffffffff1602179055508173ffffffffffffffffffffffffffffffffffffffff168173ffffffffffffffffffffffffffffffffffffffff167f8be0079c531659141344cd1fd0a4f28419497f9722a3daafe3b4186f6b6457e060405160405180910390a35050565b8173ffffffffffffffffffffffffffffffffffffffff168373ffffffffffffffffffffffffffffffffffffffff160361158d576040517f08c379a000000000000000000000000000000000000000000000000000000000815260040161158490613736565b60405180910390fd5b80600560008573ffffffffffffffffffffffffffffffffffffffff1673ffffffffffffffffffffffffffffffffffffffff16815260200190815260200160002060008473ffffffffffffffffffffffffffffffffffffffff1673ffffffffffffffffffffffffffffffffffffffff16815260200190815260200160002060006101000a81548160ff0219169083151502179055508173ffffffffffffffffffffffffffffffffffffffff168373ffffffffffffffffffffffffffffffffffffffff167f17307eab39ab6107e8899845ad3d59bd9653f200f220920489ca2b5937696c318360405161167e91906125df565b60405180910390a3505050565b6116968484846110a5565b6116a28484848461190e565b6116e1576040517f08c379a00000000000000000000000000000000000000000000000000000000081526004016116d8906137c8565b60405180910390fd5b50505050565b60606116f282610e42565b600060066000848152602001908152602001600020805461171290612c6d565b80601f016020809104026020016040519081016040528092919081815260200182805461173e90612c6d565b801561178b5780601f106117605761010080835404028352916020019161178b565b820191906000526020600020905b81548152906001019060200180831161176e57829003601f168201915b50505050509050600061179c611a95565b905060008151036117b15781925050506117f4565b6000825111156117e65780826040516020016117ce929190613824565b604051602081830303815290604052925050506117f4565b6117ef84611aac565b925050505b919050565b6000634906490660e01b7bffffffffffffffffffffffffffffffffffffffffffffffffffffffff1916827bffffffffffffffffffffffffffffffffffffffffffffffffffffffff19161480611853575061185282611b14565b5b9050919050565b60008073ffffffffffffffffffffffffffffffffffffffff1661187c8361139e565b73ffffffffffffffffffffffffffffffffffffffff1614159050919050565b6118a58383611bf6565b6118b2600084848461190e565b6118f1576040517f08c379a00000000000000000000000000000000000000000000000000000000081526004016118e8906137c8565b60405180910390fd5b505050565b61190284848484611e13565b50505050565b50505050565b600061192f8473ffffffffffffffffffffffffffffffffffffffff16611f71565b15611a88578373ffffffffffffffffffffffffffffffffffffffff1663150b7a02611958610e8d565b8786866040518563ffffffff1660e01b815260040161197a949392919061389d565b6020604051808303816000875af19250505080156119b657506040513d601f19601f820116820180604052508101906119b391906138fe565b60015b611a38573d80600081146119e6576040519150601f19603f3d011682016040523d82523d6000602084013e6119eb565b606091505b506000815103611a30576040517f08c379a0000000000000000000000000000000000000000000000000000000008152600401611a27906137c8565b60405180910390fd5b805181602001fd5b63150b7a0260e01b7bffffffffffffffffffffffffffffffffffffffffffffffffffffffff1916817bffffffffffffffffffffffffffffffffffffffffffffffffffffffff191614915050611a8d565b600190505b949350505050565b606060405180602001604052806000815250905090565b6060611ab782610e42565b6000611ac1611a95565b90506000815111611ae15760405180602001604052806000815250611b0c565b80611aeb84611f94565b604051602001611afc929190613824565b6040516020818303038152906040525b915050919050565b60007f80ac58cd000000000000000000000000000000000000000000000000000000007bffffffffffffffffffffffffffffffffffffffffffffffffffffffff1916827bffffffffffffffffffffffffffffffffffffffffffffffffffffffff19161480611bdf57507f5b5e139f000000000000000000000000000000000000000000000000000000007bffffffffffffffffffffffffffffffffffffffffffffffffffffffff1916827bffffffffffffffffffffffffffffffffffffffffffffffffffffffff1916145b80611bef5750611bee82612062565b5b9050919050565b600073ffffffffffffffffffffffffffffffffffffffff168273ffffffffffffffffffffffffffffffffffffffff1603611c65576040517f08c379a0000000000000000000000000000000000000000000000000000000008152600401611c5c90613977565b60405180910390fd5b611c6e8161185a565b15611cae576040517f08c379a0000000000000000000000000000000000000000000000000000000008152600401611ca5906139e3565b60405180910390fd5b611cbc6000838360016118f6565b611cc58161185a565b15611d05576040517f08c379a0000000000000000000000000000000000000000000000000000000008152600401611cfc906139e3565b60405180910390fd5b6001600360008473ffffffffffffffffffffffffffffffffffffffff1673ffffffffffffffffffffffffffffffffffffffff16815260200190815260200160002060008282540192505081905550816002600083815260200190815260200160002060006101000a81548173ffffffffffffffffffffffffffffffffffffffff021916908373ffffffffffffffffffffffffffffffffffffffff160217905550808273ffffffffffffffffffffffffffffffffffffffff16600073ffffffffffffffffffffffffffffffffffffffff167fddf252ad1be2c89b69c2b068fc378daa952ba7f163c4a11628f55a4df523b3ef60405160405180910390a4611e0f600083836001611908565b5050565b611e1f848484846120cc565b6001811115611e63576040517f08c379a0000000000000000000000000000000000000000000000000000000008152600401611e5a90613a75565b60405180910390fd5b6000829050600073ffffffffffffffffffffffffffffffffffffffff168573ffffffffffffffffffffffffffffffffffffffff1603611eaa57611ea5816120d2565b611ee9565b8373ffffffffffffffffffffffffffffffffffffffff168573ffffffffffffffffffffffffffffffffffffffff1614611ee857611ee7858261211b565b5b5b600073ffffffffffffffffffffffffffffffffffffffff168473ffffffffffffffffffffffffffffffffffffffff1603611f2b57611f2681612288565b611f6a565b8473ffffffffffffffffffffffffffffffffffffffff168473ffffffffffffffffffffffffffffffffffffffff1614611f6957611f688482612359565b5b5b5050505050565b6000808273ffffffffffffffffffffffffffffffffffffffff163b119050919050565b606060006001611fa3846123d8565b01905060008167ffffffffffffffff811115611fc257611fc161280b565b5b6040519080825280601f01601f191660200182016040528015611ff45781602001600182028036833780820191505090505b509050600082602001820190505b600115612057578080600190039150507f3031323334353637383961626364656600000000000000000000000000000000600a86061a8153600a858161204b5761204a613a95565b5b04945060008503612002575b819350505050919050565b60007f01ffc9a7000000000000000000000000000000000000000000000000000000007bffffffffffffffffffffffffffffffffffffffffffffffffffffffff1916827bffffffffffffffffffffffffffffffffffffffffffffffffffffffff1916149050919050565b50505050565b600980549050600a600083815260200190815260200160002081905550600981908060018154018082558091505060019003906000526020600020016000909190919091505550565b6000600161212884610a9a565b6121329190613ac4565b9050600060086000848152602001908152602001600020549050818114612217576000600760008673ffffffffffffffffffffffffffffffffffffffff1673ffffffffffffffffffffffffffffffffffffffff168152602001908152602001600020600084815260200190815260200160002054905080600760008773ffffffffffffffffffffffffffffffffffffffff1673ffffffffffffffffffffffffffffffffffffffff168152602001908152602001600020600084815260200190815260200160002081905550816008600083815260200190815260200160002081905550505b6008600084815260200190815260200160002060009055600760008573ffffffffffffffffffffffffffffffffffffffff1673ffffffffffffffffffffffffffffffffffffffff16815260200190815260200160002060008381526020019081526020016000206000905550505050565b6000600160098054905061229c9190613ac4565b90506000600a60008481526020019081526020016000205490506000600983815481106122cc576122cb61329d565b5b9060005260206000200154905080600983815481106122ee576122ed61329d565b5b906000526020600020018190555081600a600083815260200190815260200160002081905550600a600085815260200190815260200160002060009055600980548061233d5761233c613af8565b5b6001900381819060005260206000200160009055905550505050565b600061236483610a9a565b905081600760008573ffffffffffffffffffffffffffffffffffffffff1673ffffffffffffffffffffffffffffffffffffffff168152602001908152602001600020600083815260200190815260200160002081905550806008600084815260200190815260200160002081905550505050565b600080600090507a184f03e93ff9f4daa797ed6e38ed64bf6a1f0100000000000000008310612436577a184f03e93ff9f4daa797ed6e38ed64bf6a1f010000000000000000838161242c5761242b613a95565b5b0492506040810190505b6d04ee2d6d415b85acef81000000008310612473576d04ee2d6d415b85acef8100000000838161246957612468613a95565b5b0492506020810190505b662386f26fc1000083106124a257662386f26fc10000838161249857612497613a95565b5b0492506010810190505b6305f5e10083106124cb576305f5e10083816124c1576124c0613a95565b5b0492506008810190505b61271083106124f05761271083816124e6576124e5613a95565b5b0492506004810190505b60648310612513576064838161250957612508613a95565b5b0492506002810190505b600a8310612522576001810190505b80915050919050565b6000604051905090565b600080fd5b600080fd5b60007fffffffff0000000000000000000000000000000000000000000000000000000082169050919050565b6125748161253f565b811461257f57600080fd5b50565b6000813590506125918161256b565b92915050565b6000602082840312156125ad576125ac612535565b5b60006125bb84828501612582565b91505092915050565b60008115159050919050565b6125d9816125c4565b82525050565b60006020820190506125f460008301846125d0565b92915050565b600081519050919050565b600082825260208201905092915050565b60005b83811015612634578082015181840152602081019050612619565b60008484015250505050565b6000601f19601f8301169050919050565b600061265c826125fa565b6126668185612605565b9350612676818560208601612616565b61267f81612640565b840191505092915050565b600060208201905081810360008301526126a48184612651565b905092915050565b6000819050919050565b6126bf816126ac565b81146126ca57600080fd5b50565b6000813590506126dc816126b6565b92915050565b6000602082840312156126f8576126f7612535565b5b6000612706848285016126cd565b91505092915050565b600073ffffffffffffffffffffffffffffffffffffffff82169050919050565b600061273a8261270f565b9050919050565b61274a8161272f565b82525050565b60006020820190506127656000830184612741565b92915050565b6127748161272f565b811461277f57600080fd5b50565b6000813590506127918161276b565b92915050565b600080604083850312156127ae576127ad612535565b5b60006127bc85828601612782565b92505060206127cd858286016126cd565b9150509250929050565b6127e0816126ac565b82525050565b60006020820190506127fb60008301846127d7565b92915050565b600080fd5b600080fd5b7f4e487b7100000000000000000000000000000000000000000000000000000000600052604160045260246000fd5b61284382612640565b810181811067ffffffffffffffff821117156128625761286161280b565b5b80604052505050565b600061287561252b565b9050612881828261283a565b919050565b600067ffffffffffffffff8211156128a1576128a061280b565b5b6128aa82612640565b9050602081019050919050565b82818337600083830152505050565b60006128d96128d484612886565b61286b565b9050828152602081018484840111156128f5576128f4612806565b5b6129008482856128b7565b509392505050565b600082601f83011261291d5761291c612801565b5b813561292d8482602086016128c6565b91505092915050565b6000806040838503121561294d5761294c612535565b5b600061295b85828601612782565b925050602083013567ffffffffffffffff81111561297c5761297b61253a565b5b61298885828601612908565b9150509250929050565b6000806000606084860312156129ab576129aa612535565b5b60006129b986828701612782565b93505060206129ca86828701612782565b92505060406129db868287016126cd565b9150509250925092565b600080604083850312156129fc576129fb612535565b5b6000612a0a858286016126cd565b925050602083013567ffffffffffffffff811115612a2b57612a2a61253a565b5b612a3785828601612908565b9150509250929050565b600060208284031215612a5757612a56612535565b5b6000612a6584828501612782565b91505092915050565b612a77816125c4565b8114612a8257600080fd5b50565b600081359050612a9481612a6e565b92915050565b60008060408385031215612ab157612ab0612535565b5b6000612abf85828601612782565b9250506020612ad085828601612a85565b9150509250929050565b600067ffffffffffffffff821115612af557612af461280b565b5b612afe82612640565b9050602081019050919050565b6000612b1e612b1984612ada565b61286b565b905082815260208101848484011115612b3a57612b39612806565b5b612b458482856128b7565b509392505050565b600082601f830112612b6257612b61612801565b5b8135612b72848260208601612b0b565b91505092915050565b60008060008060808587031215612b9557612b94612535565b5b6000612ba387828801612782565b9450506020612bb487828801612782565b9350506040612bc5878288016126cd565b925050606085013567ffffffffffffffff811115612be657612be561253a565b5b612bf287828801612b4d565b91505092959194509250565b60008060408385031215612c1557612c14612535565b5b6000612c2385828601612782565b9250506020612c3485828601612782565b9150509250929050565b7f4e487b7100000000000000000000000000000000000000000000000000000000600052602260045260246000fd5b60006002820490506001821680612c8557607f821691505b602082108103612c9857612c97612c3e565b5b50919050565b7f4552433732313a20617070726f76616c20746f2063757272656e74206f776e6560008201527f7200000000000000000000000000000000000000000000000000000000000000602082015250565b6000612cfa602183612605565b9150612d0582612c9e565b604082019050919050565b60006020820190508181036000830152612d2981612ced565b9050919050565b7f4552433732313a20617070726f76652063616c6c6572206973206e6f7420746f60008201527f6b656e206f776e6572206f7220617070726f76656420666f7220616c6c000000602082015250565b6000612d8c603d83612605565b9150612d9782612d30565b604082019050919050565b60006020820190508181036000830152612dbb81612d7f565b9050919050565b60008190508160005260206000209050919050565b60006020601f8301049050919050565b600082821b905092915050565b600060088302612e247fffffffffffffffffffffffffffffffffffffffffffffffffffffffffffffffff82612de7565b612e2e8683612de7565b95508019841693508086168417925050509392505050565b6000819050919050565b6000612e6b612e66612e61846126ac565b612e46565b6126ac565b9050919050565b6000819050919050565b612e8583612e50565b612e99612e9182612e72565b848454612df4565b825550505050565b600090565b612eae612ea1565b612eb9818484612e7c565b505050565b5b81811015612edd57612ed2600082612ea6565b600181019050612ebf565b5050565b601f821115612f2257612ef381612dc2565b612efc84612dd7565b81016020851015612f0b578190505b612f1f612f1785612dd7565b830182612ebe565b50505b505050565b600082821c905092915050565b6000612f4560001984600802612f27565b1980831691505092915050565b6000612f5e8383612f34565b9150826002028217905092915050565b612f77826125fa565b67ffffffffffffffff811115612f9057612f8f61280b565b5b612f9a8254612c6d565b612fa5828285612ee1565b600060209050601f831160018114612fd85760008415612fc6578287015190505b612fd08582612f52565b865550613038565b601f198416612fe686612dc2565b60005b8281101561300e57848901518255600182019150602085019450602081019050612fe9565b8683101561302b5784890151613027601f891682612f34565b8355505b6001600288020188555050505b505050505050565b7f4e487b7100000000000000000000000000000000000000000000000000000000600052601160045260246000fd5b600061307a826126ac565b91507fffffffffffffffffffffffffffffffffffffffffffffffffffffffffffffffff82036130ac576130ab613040565b5b600182019050919050565b60006040820190506130cc60008301856127d7565b81810360208301526130de8184612651565b90509392505050565b7f4552433732313a2063616c6c6572206973206e6f7420746f6b656e206f776e6560008201527f72206f7220617070726f76656400000000000000000000000000000000000000602082015250565b6000613143602d83612605565b915061314e826130e7565b604082019050919050565b6000602082019050818103600083015261317281613136565b9050919050565b7f455243373231456e756d657261626c653a206f776e657220696e646578206f7560008201527f74206f6620626f756e6473000000000000000000000000000000000000000000602082015250565b60006131d5602b83612605565b91506131e082613179565b604082019050919050565b60006020820190508181036000830152613204816131c8565b9050919050565b7f455243373231456e756d657261626c653a20676c6f62616c20696e646578206f60008201527f7574206f6620626f756e64730000000000000000000000000000000000000000602082015250565b6000613267602c83612605565b91506132728261320b565b604082019050919050565b600060208201905081810360008301526132968161325a565b9050919050565b7f4e487b7100000000000000000000000000000000000000000000000000000000600052603260045260246000fd5b7f4e6f74206f776e65720000000000000000000000000000000000000000000000600082015250565b6000613302600983612605565b915061330d826132cc565b602082019050919050565b60006020820190508181036000830152613331816132f5565b9050919050565b7f4552433732313a20696e76616c696420746f6b656e2049440000000000000000600082015250565b600061336e601883612605565b915061337982613338565b602082019050919050565b6000602082019050818103600083015261339d81613361565b9050919050565b7f4552433732313a2061646472657373207a65726f206973206e6f74206120766160008201527f6c6964206f776e65720000000000000000000000000000000000000000000000602082015250565b6000613400602983612605565b915061340b826133a4565b604082019050919050565b6000602082019050818103600083015261342f816133f3565b9050919050565b7f4f776e61626c653a206e6577206f776e657220697320746865207a65726f206160008201527f6464726573730000000000000000000000000000000000000000000000000000602082015250565b6000613492602683612605565b915061349d82613436565b604082019050919050565b600060208201905081810360008301526134c181613485565b9050919050565b7f45524337323155524953746f726167653a2055524920736574206f66206e6f6e60008201527f6578697374656e7420746f6b656e000000000000000000000000000000000000602082015250565b6000613524602e83612605565b915061352f826134c8565b604082019050919050565b6000602082019050818103600083015261355381613517565b9050919050565b7f4552433732313a207472616e736665722066726f6d20696e636f72726563742060008201527f6f776e6572000000000000000000000000000000000000000000000000000000602082015250565b60006135b6602583612605565b91506135c18261355a565b604082019050919050565b600060208201905081810360008301526135e5816135a9565b9050919050565b7f4552433732313a207472616e7366657220746f20746865207a65726f2061646460008201527f7265737300000000000000000000000000000000000000000000000000000000602082015250565b6000613648602483612605565b9150613653826135ec565b604082019050919050565b600060208201905081810360008301526136778161363b565b9050919050565b7f4f776e61626c653a2063616c6c6572206973206e6f7420746865206f776e6572600082015250565b60006136b4602083612605565b91506136bf8261367e565b602082019050919050565b600060208201905081810360008301526136e3816136a7565b9050919050565b7f4552433732313a20617070726f766520746f2063616c6c657200000000000000600082015250565b6000613720601983612605565b915061372b826136ea565b602082019050919050565b6000602082019050818103600083015261374f81613713565b9050919050565b7f4552433732313a207472616e7366657220746f206e6f6e20455243373231526560008201527f63656976657220696d706c656d656e7465720000000000000000000000000000602082015250565b60006137b2603283612605565b91506137bd82613756565b604082019050919050565b600060208201905081810360008301526137e1816137a5565b9050919050565b600081905092915050565b60006137fe826125fa565b61380881856137e8565b9350613818818560208601612616565b80840191505092915050565b600061383082856137f3565b915061383c82846137f3565b91508190509392505050565b600081519050919050565b600082825260208201905092915050565b600061386f82613848565b6138798185613853565b9350613889818560208601612616565b61389281612640565b840191505092915050565b60006080820190506138b26000830187612741565b6138bf6020830186612741565b6138cc60408301856127d7565b81810360608301526138de8184613864565b905095945050505050565b6000815190506138f88161256b565b92915050565b60006020828403121561391457613913612535565b5b6000613922848285016138e9565b91505092915050565b7f4552433732313a206d696e7420746f20746865207a65726f2061646472657373600082015250565b6000613961602083612605565b915061396c8261392b565b602082019050919050565b6000602082019050818103600083015261399081613954565b9050919050565b7f4552433732313a20746f6b656e20616c7265616479206d696e74656400000000600082015250565b60006139cd601c83612605565b91506139d882613997565b602082019050919050565b600060208201905081810360008301526139fc816139c0565b9050919050565b7f455243373231456e756d657261626c653a20636f6e736563757469766520747260008201527f616e7366657273206e6f7420737570706f727465640000000000000000000000602082015250565b6000613a5f603583612605565b9150613a6a82613a03565b604082019050919050565b60006020820190508181036000830152613a8e81613a52565b9050919050565b7f4e487b7100000000000000000000000000000000000000000000000000000000600052601260045260246000fd5b6000613acf826126ac565b9150613ada836126ac565b9250828203905081811115613af257613af1613040565b5b92915050565b7f4e487b7100000000000000000000000000000000000000000000000000000000600052603160045260246000fdfea2646970667358221220bbf34aa1e4396d4909e029c1a8b4bfe3fc2dfd8bf45fa14537ccc86729269a7164736f6c63430008140033",
  "linkReferences": {},
  "deployedLinkReferences": {}
}